{
	"data": {
		"bytecode": {
			"linkReferences": {},
			"object": "6080604052348015600e575f80fd5b506107908061001c5f395ff3fe608060405234801561000f575f80fd5b5060043610610029575f3560e01c8063614373581461002d575b5f80fd5b610047600480360381019061004291906104cb565b610049565b005b5f6100978484848080601f0160208091040260200160405190810160405280939291908181526020018383808284375f81840152601f19601f820116905080830192505050505050506100ba565b90506100a45f54826100cf565b5f819055506100b45f5430610115565b50505050565b5f6100c783836004610123565b905092915050565b5f6100d98361023f565b6100e9576100e65f61024b565b92505b6100f28261023f565b610102576100ff5f61024b565b91505b61010d83835f61025e565b905092915050565b61011f8282610314565b5050565b5f7305fd9b5efe0a996095f42ed7e77c390810cf660c73ffffffffffffffffffffffffffffffffffffffff16632e817ff08533868660f81b6040518563ffffffff1660e01b815260040161017a9493929190610620565b6020604051808303815f875af1158015610196573d5f803e3d5ffd5b505050506040513d601f19601f820116820180604052508101906101ba919061069d565b9050732fb4341027eb1d2ad8b5d9708187df8633cafa9273ffffffffffffffffffffffffffffffffffffffff16638d9c9c9282336040518363ffffffff1660e01b815260040161020b9291906106d7565b5f604051808303815f87803b158015610222575f80fd5b505af1158015610234573d5f803e3d5ffd5b505050509392505050565b5f808214159050919050565b5f610257826004610394565b9050919050565b5f80821561027257600160f81b9050610279565b5f60f81b90505b7305fd9b5efe0a996095f42ed7e77c390810cf660c73ffffffffffffffffffffffffffffffffffffffff1663f953e4278686846040518463ffffffff1660e01b81526004016102ca939291906106fe565b6020604051808303815f875af11580156102e6573d5f803e3d5ffd5b505050506040513d601f19601f8201168201806040525081019061030a919061069d565b9150509392505050565b732fb4341027eb1d2ad8b5d9708187df8633cafa9273ffffffffffffffffffffffffffffffffffffffff166365d0509c83836040518363ffffffff1660e01b81526004016103639291906106d7565b5f604051808303815f87803b15801561037a575f80fd5b505af115801561038c573d5f803e3d5ffd5b505050505050565b5f7305fd9b5efe0a996095f42ed7e77c390810cf660c73ffffffffffffffffffffffffffffffffffffffff1663e71746b8848460f81b6040518363ffffffff1660e01b81526004016103e7929190610733565b6020604051808303815f875af1158015610403573d5f803e3d5ffd5b505050506040513d601f19601f82011682018060405250810190610427919061069d565b905092915050565b5f80fd5b5f80fd5b5f819050919050565b61044981610437565b8114610453575f80fd5b50565b5f8135905061046481610440565b92915050565b5f80fd5b5f80fd5b5f80fd5b5f8083601f84011261048b5761048a61046a565b5b8235905067ffffffffffffffff8111156104a8576104a761046e565b5b6020830191508360018202830111156104c4576104c3610472565b5b9250929050565b5f805f604084860312156104e2576104e161042f565b5b5f6104ef86828701610456565b935050602084013567ffffffffffffffff8111156105105761050f610433565b5b61051c86828701610476565b92509250509250925092565b61053181610437565b82525050565b5f73ffffffffffffffffffffffffffffffffffffffff82169050919050565b5f61056082610537565b9050919050565b61057081610556565b82525050565b5f81519050919050565b5f82825260208201905092915050565b8281835e5f83830152505050565b5f601f19601f8301169050919050565b5f6105b882610576565b6105c28185610580565b93506105d2818560208601610590565b6105db8161059e565b840191505092915050565b5f7fff0000000000000000000000000000000000000000000000000000000000000082169050919050565b61061a816105e6565b82525050565b5f6080820190506106335f830187610528565b6106406020830186610567565b818103604083015261065281856105ae565b90506106616060830184610611565b95945050505050565b5f819050919050565b61067c8161066a565b8114610686575f80fd5b50565b5f8151905061069781610673565b92915050565b5f602082840312156106b2576106b161042f565b5b5f6106bf84828501610689565b91505092915050565b6106d18161066a565b82525050565b5f6040820190506106ea5f8301856106c8565b6106f76020830184610567565b9392505050565b5f6060820190506107115f8301866106c8565b61071e60208301856106c8565b61072b6040830184610611565b949350505050565b5f6040820190506107465f8301856106c8565b6107536020830184610611565b939250505056fea264697066735822122036f6332b33fa88105f80e3dbc2590f0adf6735c29c14022292a78dc568f884a664736f6c634300081a0033",
			"opcodes": "PUSH1 0x80 PUSH1 0x40 MSTORE CALLVALUE DUP1 ISZERO PUSH1 0xE JUMPI PUSH0 DUP1 REVERT JUMPDEST POP PUSH2 0x790 DUP1 PUSH2 0x1C PUSH0 CODECOPY PUSH0 RETURN INVALID PUSH1 0x80 PUSH1 0x40 MSTORE CALLVALUE DUP1 ISZERO PUSH2 0xF JUMPI PUSH0 DUP1 REVERT JUMPDEST POP PUSH1 0x4 CALLDATASIZE LT PUSH2 0x29 JUMPI PUSH0 CALLDATALOAD PUSH1 0xE0 SHR DUP1 PUSH4 0x61437358 EQ PUSH2 0x2D JUMPI JUMPDEST PUSH0 DUP1 REVERT JUMPDEST PUSH2 0x47 PUSH1 0x4 DUP1 CALLDATASIZE SUB DUP2 ADD SWAP1 PUSH2 0x42 SWAP2 SWAP1 PUSH2 0x4CB JUMP JUMPDEST PUSH2 0x49 JUMP JUMPDEST STOP JUMPDEST PUSH0 PUSH2 0x97 DUP5 DUP5 DUP5 DUP1 DUP1 PUSH1 0x1F ADD PUSH1 0x20 DUP1 SWAP2 DIV MUL PUSH1 0x20 ADD PUSH1 0x40 MLOAD SWAP1 DUP2 ADD PUSH1 0x40 MSTORE DUP1 SWAP4 SWAP3 SWAP2 SWAP1 DUP2 DUP2 MSTORE PUSH1 0x20 ADD DUP4 DUP4 DUP1 DUP3 DUP5 CALLDATACOPY PUSH0 DUP2 DUP5 ADD MSTORE PUSH1 0x1F NOT PUSH1 0x1F DUP3 ADD AND SWAP1 POP DUP1 DUP4 ADD SWAP3 POP POP POP POP POP POP POP PUSH2 0xBA JUMP JUMPDEST SWAP1 POP PUSH2 0xA4 PUSH0 SLOAD DUP3 PUSH2 0xCF JUMP JUMPDEST PUSH0 DUP2 SWAP1 SSTORE POP PUSH2 0xB4 PUSH0 SLOAD ADDRESS PUSH2 0x115 JUMP JUMPDEST POP POP POP POP JUMP JUMPDEST PUSH0 PUSH2 0xC7 DUP4 DUP4 PUSH1 0x4 PUSH2 0x123 JUMP JUMPDEST SWAP1 POP SWAP3 SWAP2 POP POP JUMP JUMPDEST PUSH0 PUSH2 0xD9 DUP4 PUSH2 0x23F JUMP JUMPDEST PUSH2 0xE9 JUMPI PUSH2 0xE6 PUSH0 PUSH2 0x24B JUMP JUMPDEST SWAP3 POP JUMPDEST PUSH2 0xF2 DUP3 PUSH2 0x23F JUMP JUMPDEST PUSH2 0x102 JUMPI PUSH2 0xFF PUSH0 PUSH2 0x24B JUMP JUMPDEST SWAP2 POP JUMPDEST PUSH2 0x10D DUP4 DUP4 PUSH0 PUSH2 0x25E JUMP JUMPDEST SWAP1 POP SWAP3 SWAP2 POP POP JUMP JUMPDEST PUSH2 0x11F DUP3 DUP3 PUSH2 0x314 JUMP JUMPDEST POP POP JUMP JUMPDEST PUSH0 PUSH20 0x5FD9B5EFE0A996095F42ED7E77C390810CF660C PUSH20 0xFFFFFFFFFFFFFFFFFFFFFFFFFFFFFFFFFFFFFFFF AND PUSH4 0x2E817FF0 DUP6 CALLER DUP7 DUP7 PUSH1 0xF8 SHL PUSH1 0x40 MLOAD DUP6 PUSH4 0xFFFFFFFF AND PUSH1 0xE0 SHL DUP2 MSTORE PUSH1 0x4 ADD PUSH2 0x17A SWAP5 SWAP4 SWAP3 SWAP2 SWAP1 PUSH2 0x620 JUMP JUMPDEST PUSH1 0x20 PUSH1 0x40 MLOAD DUP1 DUP4 SUB DUP2 PUSH0 DUP8 GAS CALL ISZERO DUP1 ISZERO PUSH2 0x196 JUMPI RETURNDATASIZE PUSH0 DUP1 RETURNDATACOPY RETURNDATASIZE PUSH0 REVERT JUMPDEST POP POP POP POP PUSH1 0x40 MLOAD RETURNDATASIZE PUSH1 0x1F NOT PUSH1 0x1F DUP3 ADD AND DUP3 ADD DUP1 PUSH1 0x40 MSTORE POP DUP2 ADD SWAP1 PUSH2 0x1BA SWAP2 SWAP1 PUSH2 0x69D JUMP JUMPDEST SWAP1 POP PUSH20 0x2FB4341027EB1D2AD8B5D9708187DF8633CAFA92 PUSH20 0xFFFFFFFFFFFFFFFFFFFFFFFFFFFFFFFFFFFFFFFF AND PUSH4 0x8D9C9C92 DUP3 CALLER PUSH1 0x40 MLOAD DUP4 PUSH4 0xFFFFFFFF AND PUSH1 0xE0 SHL DUP2 MSTORE PUSH1 0x4 ADD PUSH2 0x20B SWAP3 SWAP2 SWAP1 PUSH2 0x6D7 JUMP JUMPDEST PUSH0 PUSH1 0x40 MLOAD DUP1 DUP4 SUB DUP2 PUSH0 DUP8 DUP1 EXTCODESIZE ISZERO DUP1 ISZERO PUSH2 0x222 JUMPI PUSH0 DUP1 REVERT JUMPDEST POP GAS CALL ISZERO DUP1 ISZERO PUSH2 0x234 JUMPI RETURNDATASIZE PUSH0 DUP1 RETURNDATACOPY RETURNDATASIZE PUSH0 REVERT JUMPDEST POP POP POP POP SWAP4 SWAP3 POP POP POP JUMP JUMPDEST PUSH0 DUP1 DUP3 EQ ISZERO SWAP1 POP SWAP2 SWAP1 POP JUMP JUMPDEST PUSH0 PUSH2 0x257 DUP3 PUSH1 0x4 PUSH2 0x394 JUMP JUMPDEST SWAP1 POP SWAP2 SWAP1 POP JUMP JUMPDEST PUSH0 DUP1 DUP3 ISZERO PUSH2 0x272 JUMPI PUSH1 0x1 PUSH1 0xF8 SHL SWAP1 POP PUSH2 0x279 JUMP JUMPDEST PUSH0 PUSH1 0xF8 SHL SWAP1 POP JUMPDEST PUSH20 0x5FD9B5EFE0A996095F42ED7E77C390810CF660C PUSH20 0xFFFFFFFFFFFFFFFFFFFFFFFFFFFFFFFFFFFFFFFF AND PUSH4 0xF953E427 DUP7 DUP7 DUP5 PUSH1 0x40 MLOAD DUP5 PUSH4 0xFFFFFFFF AND PUSH1 0xE0 SHL DUP2 MSTORE PUSH1 0x4 ADD PUSH2 0x2CA SWAP4 SWAP3 SWAP2 SWAP1 PUSH2 0x6FE JUMP JUMPDEST PUSH1 0x20 PUSH1 0x40 MLOAD DUP1 DUP4 SUB DUP2 PUSH0 DUP8 GAS CALL ISZERO DUP1 ISZERO PUSH2 0x2E6 JUMPI RETURNDATASIZE PUSH0 DUP1 RETURNDATACOPY RETURNDATASIZE PUSH0 REVERT JUMPDEST POP POP POP POP PUSH1 0x40 MLOAD RETURNDATASIZE PUSH1 0x1F NOT PUSH1 0x1F DUP3 ADD AND DUP3 ADD DUP1 PUSH1 0x40 MSTORE POP DUP2 ADD SWAP1 PUSH2 0x30A SWAP2 SWAP1 PUSH2 0x69D JUMP JUMPDEST SWAP2 POP POP SWAP4 SWAP3 POP POP POP JUMP JUMPDEST PUSH20 0x2FB4341027EB1D2AD8B5D9708187DF8633CAFA92 PUSH20 0xFFFFFFFFFFFFFFFFFFFFFFFFFFFFFFFFFFFFFFFF AND PUSH4 0x65D0509C DUP4 DUP4 PUSH1 0x40 MLOAD DUP4 PUSH4 0xFFFFFFFF AND PUSH1 0xE0 SHL DUP2 MSTORE PUSH1 0x4 ADD PUSH2 0x363 SWAP3 SWAP2 SWAP1 PUSH2 0x6D7 JUMP JUMPDEST PUSH0 PUSH1 0x40 MLOAD DUP1 DUP4 SUB DUP2 PUSH0 DUP8 DUP1 EXTCODESIZE ISZERO DUP1 ISZERO PUSH2 0x37A JUMPI PUSH0 DUP1 REVERT JUMPDEST POP GAS CALL ISZERO DUP1 ISZERO PUSH2 0x38C JUMPI RETURNDATASIZE PUSH0 DUP1 RETURNDATACOPY RETURNDATASIZE PUSH0 REVERT JUMPDEST POP POP POP POP POP POP JUMP JUMPDEST PUSH0 PUSH20 0x5FD9B5EFE0A996095F42ED7E77C390810CF660C PUSH20 0xFFFFFFFFFFFFFFFFFFFFFFFFFFFFFFFFFFFFFFFF AND PUSH4 0xE71746B8 DUP5 DUP5 PUSH1 0xF8 SHL PUSH1 0x40 MLOAD DUP4 PUSH4 0xFFFFFFFF AND PUSH1 0xE0 SHL DUP2 MSTORE PUSH1 0x4 ADD PUSH2 0x3E7 SWAP3 SWAP2 SWAP1 PUSH2 0x733 JUMP JUMPDEST PUSH1 0x20 PUSH1 0x40 MLOAD DUP1 DUP4 SUB DUP2 PUSH0 DUP8 GAS CALL ISZERO DUP1 ISZERO PUSH2 0x403 JUMPI RETURNDATASIZE PUSH0 DUP1 RETURNDATACOPY RETURNDATASIZE PUSH0 REVERT JUMPDEST POP POP POP POP PUSH1 0x40 MLOAD RETURNDATASIZE PUSH1 0x1F NOT PUSH1 0x1F DUP3 ADD AND DUP3 ADD DUP1 PUSH1 0x40 MSTORE POP DUP2 ADD SWAP1 PUSH2 0x427 SWAP2 SWAP1 PUSH2 0x69D JUMP JUMPDEST SWAP1 POP SWAP3 SWAP2 POP POP JUMP JUMPDEST PUSH0 DUP1 REVERT JUMPDEST PUSH0 DUP1 REVERT JUMPDEST PUSH0 DUP2 SWAP1 POP SWAP2 SWAP1 POP JUMP JUMPDEST PUSH2 0x449 DUP2 PUSH2 0x437 JUMP JUMPDEST DUP2 EQ PUSH2 0x453 JUMPI PUSH0 DUP1 REVERT JUMPDEST POP JUMP JUMPDEST PUSH0 DUP2 CALLDATALOAD SWAP1 POP PUSH2 0x464 DUP2 PUSH2 0x440 JUMP JUMPDEST SWAP3 SWAP2 POP POP JUMP JUMPDEST PUSH0 DUP1 REVERT JUMPDEST PUSH0 DUP1 REVERT JUMPDEST PUSH0 DUP1 REVERT JUMPDEST PUSH0 DUP1 DUP4 PUSH1 0x1F DUP5 ADD SLT PUSH2 0x48B JUMPI PUSH2 0x48A PUSH2 0x46A JUMP JUMPDEST JUMPDEST DUP3 CALLDATALOAD SWAP1 POP PUSH8 0xFFFFFFFFFFFFFFFF DUP2 GT ISZERO PUSH2 0x4A8 JUMPI PUSH2 0x4A7 PUSH2 0x46E JUMP JUMPDEST JUMPDEST PUSH1 0x20 DUP4 ADD SWAP2 POP DUP4 PUSH1 0x1 DUP3 MUL DUP4 ADD GT ISZERO PUSH2 0x4C4 JUMPI PUSH2 0x4C3 PUSH2 0x472 JUMP JUMPDEST JUMPDEST SWAP3 POP SWAP3 SWAP1 POP JUMP JUMPDEST PUSH0 DUP1 PUSH0 PUSH1 0x40 DUP5 DUP7 SUB SLT ISZERO PUSH2 0x4E2 JUMPI PUSH2 0x4E1 PUSH2 0x42F JUMP JUMPDEST JUMPDEST PUSH0 PUSH2 0x4EF DUP7 DUP3 DUP8 ADD PUSH2 0x456 JUMP JUMPDEST SWAP4 POP POP PUSH1 0x20 DUP5 ADD CALLDATALOAD PUSH8 0xFFFFFFFFFFFFFFFF DUP2 GT ISZERO PUSH2 0x510 JUMPI PUSH2 0x50F PUSH2 0x433 JUMP JUMPDEST JUMPDEST PUSH2 0x51C DUP7 DUP3 DUP8 ADD PUSH2 0x476 JUMP JUMPDEST SWAP3 POP SWAP3 POP POP SWAP3 POP SWAP3 POP SWAP3 JUMP JUMPDEST PUSH2 0x531 DUP2 PUSH2 0x437 JUMP JUMPDEST DUP3 MSTORE POP POP JUMP JUMPDEST PUSH0 PUSH20 0xFFFFFFFFFFFFFFFFFFFFFFFFFFFFFFFFFFFFFFFF DUP3 AND SWAP1 POP SWAP2 SWAP1 POP JUMP JUMPDEST PUSH0 PUSH2 0x560 DUP3 PUSH2 0x537 JUMP JUMPDEST SWAP1 POP SWAP2 SWAP1 POP JUMP JUMPDEST PUSH2 0x570 DUP2 PUSH2 0x556 JUMP JUMPDEST DUP3 MSTORE POP POP JUMP JUMPDEST PUSH0 DUP2 MLOAD SWAP1 POP SWAP2 SWAP1 POP JUMP JUMPDEST PUSH0 DUP3 DUP3 MSTORE PUSH1 0x20 DUP3 ADD SWAP1 POP SWAP3 SWAP2 POP POP JUMP JUMPDEST DUP3 DUP2 DUP4 MCOPY PUSH0 DUP4 DUP4 ADD MSTORE POP POP POP JUMP JUMPDEST PUSH0 PUSH1 0x1F NOT PUSH1 0x1F DUP4 ADD AND SWAP1 POP SWAP2 SWAP1 POP JUMP JUMPDEST PUSH0 PUSH2 0x5B8 DUP3 PUSH2 0x576 JUMP JUMPDEST PUSH2 0x5C2 DUP2 DUP6 PUSH2 0x580 JUMP JUMPDEST SWAP4 POP PUSH2 0x5D2 DUP2 DUP6 PUSH1 0x20 DUP7 ADD PUSH2 0x590 JUMP JUMPDEST PUSH2 0x5DB DUP2 PUSH2 0x59E JUMP JUMPDEST DUP5 ADD SWAP2 POP POP SWAP3 SWAP2 POP POP JUMP JUMPDEST PUSH0 PUSH32 0xFF00000000000000000000000000000000000000000000000000000000000000 DUP3 AND SWAP1 POP SWAP2 SWAP1 POP JUMP JUMPDEST PUSH2 0x61A DUP2 PUSH2 0x5E6 JUMP JUMPDEST DUP3 MSTORE POP POP JUMP JUMPDEST PUSH0 PUSH1 0x80 DUP3 ADD SWAP1 POP PUSH2 0x633 PUSH0 DUP4 ADD DUP8 PUSH2 0x528 JUMP JUMPDEST PUSH2 0x640 PUSH1 0x20 DUP4 ADD DUP7 PUSH2 0x567 JUMP JUMPDEST DUP2 DUP2 SUB PUSH1 0x40 DUP4 ADD MSTORE PUSH2 0x652 DUP2 DUP6 PUSH2 0x5AE JUMP JUMPDEST SWAP1 POP PUSH2 0x661 PUSH1 0x60 DUP4 ADD DUP5 PUSH2 0x611 JUMP JUMPDEST SWAP6 SWAP5 POP POP POP POP POP JUMP JUMPDEST PUSH0 DUP2 SWAP1 POP SWAP2 SWAP1 POP JUMP JUMPDEST PUSH2 0x67C DUP2 PUSH2 0x66A JUMP JUMPDEST DUP2 EQ PUSH2 0x686 JUMPI PUSH0 DUP1 REVERT JUMPDEST POP JUMP JUMPDEST PUSH0 DUP2 MLOAD SWAP1 POP PUSH2 0x697 DUP2 PUSH2 0x673 JUMP JUMPDEST SWAP3 SWAP2 POP POP JUMP JUMPDEST PUSH0 PUSH1 0x20 DUP3 DUP5 SUB SLT ISZERO PUSH2 0x6B2 JUMPI PUSH2 0x6B1 PUSH2 0x42F JUMP JUMPDEST JUMPDEST PUSH0 PUSH2 0x6BF DUP5 DUP3 DUP6 ADD PUSH2 0x689 JUMP JUMPDEST SWAP2 POP POP SWAP3 SWAP2 POP POP JUMP JUMPDEST PUSH2 0x6D1 DUP2 PUSH2 0x66A JUMP JUMPDEST DUP3 MSTORE POP POP JUMP JUMPDEST PUSH0 PUSH1 0x40 DUP3 ADD SWAP1 POP PUSH2 0x6EA PUSH0 DUP4 ADD DUP6 PUSH2 0x6C8 JUMP JUMPDEST PUSH2 0x6F7 PUSH1 0x20 DUP4 ADD DUP5 PUSH2 0x567 JUMP JUMPDEST SWAP4 SWAP3 POP POP POP JUMP JUMPDEST PUSH0 PUSH1 0x60 DUP3 ADD SWAP1 POP PUSH2 0x711 PUSH0 DUP4 ADD DUP7 PUSH2 0x6C8 JUMP JUMPDEST PUSH2 0x71E PUSH1 0x20 DUP4 ADD DUP6 PUSH2 0x6C8 JUMP JUMPDEST PUSH2 0x72B PUSH1 0x40 DUP4 ADD DUP5 PUSH2 0x611 JUMP JUMPDEST SWAP5 SWAP4 POP POP POP POP JUMP JUMPDEST PUSH0 PUSH1 0x40 DUP3 ADD SWAP1 POP PUSH2 0x746 PUSH0 DUP4 ADD DUP6 PUSH2 0x6C8 JUMP JUMPDEST PUSH2 0x753 PUSH1 0x20 DUP4 ADD DUP5 PUSH2 0x611 JUMP JUMPDEST SWAP4 SWAP3 POP POP POP JUMP INVALID LOG2 PUSH5 0x6970667358 0x22 SLT KECCAK256 CALLDATASIZE 0xF6 CALLER 0x2B CALLER STATICCALL DUP9 LT PUSH0 DUP1 0xE3 0xDB 0xC2 MSIZE 0xF EXP 0xDF PUSH8 0x35C29C14022292A7 DUP14 0xC5 PUSH9 0xF884A664736F6C6343 STOP ADDMOD BYTE STOP CALLER "
		},
		"gasEstimates": {
			"creation": {
				"codeDepositCost": "387200",
				"executionCost": "422",
				"totalCost": "387622"
			},
			"external": {
				"add(bytes32,bytes)": "infinite"
			}
		},
		"methodIdentifiers": {
			"add(bytes32,bytes)": "61437358"
		}
	},
	"abi": [
		{
			"inputs": [
				{
					"internalType": "einput",
					"name": "valueInput",
					"type": "bytes32"
				},
				{
					"internalType": "bytes",
					"name": "inputProof",
					"type": "bytes"
				}
			],
			"name": "add",
			"outputs": [],
			"stateMutability": "nonpayable",
			"type": "function"
		}
	]
}